{
  "contractName": "ClassVote",
  "abi": [
    {
      "inputs": [],
      "stateMutability": "nonpayable",
      "type": "constructor"
    },
    {
      "anonymous": false,
      "inputs": [
        {
          "indexed": false,
          "internalType": "uint256",
          "name": "id",
          "type": "uint256"
        },
        {
          "indexed": false,
          "internalType": "string",
          "name": "name",
          "type": "string"
        }
      ],
      "name": "CandidateAdded",
      "type": "event"
    },
    {
      "anonymous": false,
      "inputs": [
        {
          "indexed": false,
          "internalType": "address",
          "name": "voter",
          "type": "address"
        },
        {
          "indexed": false,
          "internalType": "uint256",
          "name": "candidateId",
          "type": "uint256"
        }
      ],
      "name": "Voted",
      "type": "event"
    },
    {
      "anonymous": false,
      "inputs": [],
      "name": "VotingClosed",
      "type": "event"
    },
    {
      "anonymous": false,
      "inputs": [],
      "name": "VotingOpened",
      "type": "event"
    },
    {
      "inputs": [],
      "name": "admin",
      "outputs": [
        {
          "internalType": "address",
          "name": "",
          "type": "address"
        }
      ],
      "stateMutability": "view",
      "type": "function",
      "constant": true
    },
    {
      "inputs": [
        {
          "internalType": "uint256",
          "name": "",
          "type": "uint256"
        }
      ],
      "name": "candidates",
      "outputs": [
        {
          "internalType": "uint256",
          "name": "id",
          "type": "uint256"
        },
        {
          "internalType": "string",
          "name": "name",
          "type": "string"
        },
        {
          "internalType": "uint256",
          "name": "voteCount",
          "type": "uint256"
        }
      ],
      "stateMutability": "view",
      "type": "function",
      "constant": true
    },
    {
      "inputs": [],
      "name": "candidatesCount",
      "outputs": [
        {
          "internalType": "uint256",
          "name": "",
          "type": "uint256"
        }
      ],
      "stateMutability": "view",
      "type": "function",
      "constant": true
    },
    {
      "inputs": [
        {
          "internalType": "address",
          "name": "",
          "type": "address"
        }
      ],
      "name": "hasVoted",
      "outputs": [
        {
          "internalType": "bool",
          "name": "",
          "type": "bool"
        }
      ],
      "stateMutability": "view",
      "type": "function",
      "constant": true
    },
    {
      "inputs": [],
      "name": "votingOpen",
      "outputs": [
        {
          "internalType": "bool",
          "name": "",
          "type": "bool"
        }
      ],
      "stateMutability": "view",
      "type": "function",
      "constant": true
    },
    {
      "inputs": [
        {
          "internalType": "string",
          "name": "_name",
          "type": "string"
        }
      ],
      "name": "addCandidate",
      "outputs": [],
      "stateMutability": "nonpayable",
      "type": "function"
    },
    {
      "inputs": [],
      "name": "openVoting",
      "outputs": [],
      "stateMutability": "nonpayable",
      "type": "function"
    },
    {
      "inputs": [],
      "name": "closeVoting",
      "outputs": [],
      "stateMutability": "nonpayable",
      "type": "function"
    },
    {
      "inputs": [
        {
          "internalType": "uint256",
          "name": "_candidateId",
          "type": "uint256"
        }
      ],
      "name": "vote",
      "outputs": [],
      "stateMutability": "nonpayable",
      "type": "function"
    }
  ],
  "bytecode": "0x608060405234801561001057600080fd5b506000805460ff60a01b1933166001600160a81b03199091161790556108918061003b6000396000f3fe608060405234801561001057600080fd5b50600436106100935760003560e01c8063462e91ec11610066578063462e91ec1461011e578063a95824b414610131578063affc067014610145578063c631b2921461014d578063f851a4401461015557600080fd5b80630121b93f1461009857806309eef43e146100ad5780632d35a8a2146100e55780633477ee2e146100fc575b600080fd5b6100ab6100a6366004610527565b610180565b005b6100d06100bb366004610540565b60036020526000908152604090205460ff1681565b60405190151581526020015b60405180910390f35b6100ee60025481565b6040519081526020016100dc565b61010f61010a366004610527565b6102f7565b6040516100dc939291906105b6565b6100ab61012c3660046105f5565b6103a1565b6000546100d090600160a01b900460ff1681565b6100ab610461565b6100ab6104c7565b600054610168906001600160a01b031681565b6040516001600160a01b0390911681526020016100dc565b600054600160a01b900460ff1615156001146101d85760405162461bcd60e51b81526020600482015260126024820152712b37ba34b7339034b9903737ba1037b832b760711b60448201526064015b60405180910390fd5b3360009081526003602052604090205460ff161561022c5760405162461bcd60e51b8152602060048201526011602482015270165bdd48185b1c9958591e481d9bdd1959607a1b60448201526064016101cf565b60008111801561023e57506002548111155b61027e5760405162461bcd60e51b8152602060048201526011602482015270496e76616c69642063616e64696461746560781b60448201526064016101cf565b336000908152600360209081526040808320805460ff1916600190811790915584845290915281206002018054916102b5836106a6565b909155505060408051338152602081018390527f4d99b957a2bc29a30ebd96a7be8e68fe50a3c701db28a91436490b7d53870ca491015b60405180910390a150565b600160208190526000918252604090912080549181018054610318906106cd565b80601f0160208091040260200160405190810160405280929190818152602001828054610344906106cd565b80156103915780601f1061036657610100808354040283529160200191610391565b820191906000526020600020905b81548152906001019060200180831161037457829003601f168201915b5050505050908060020154905083565b6000546001600160a01b031633146103cb5760405162461bcd60e51b81526004016101cf90610707565b600280549060006103db836106a6565b909155505060408051606081018252600254808252602080830185815260008486018190529283526001918290529390912082518155925191929190820190610424908261077a565b506040918201516002918201555490517fe83b2a43e7e82d975c8a0a6d2f045153c869e111136a34d1889ab7b598e396a3916102ec91849061083a565b6000546001600160a01b0316331461048b5760405162461bcd60e51b81526004016101cf90610707565b6000805460ff60a01b1916600160a01b1781556040517fa737faa632a36c00ccb4220893426e922f9442f1cab67acd8301f88a596d4abc9190a1565b6000546001600160a01b031633146104f15760405162461bcd60e51b81526004016101cf90610707565b6000805460ff60a01b191681556040517f66b6cb4a09abc3bf1cacc3c67420258856ffdad0deba9078cbd1658957b502189190a1565b60006020828403121561053957600080fd5b5035919050565b60006020828403121561055257600080fd5b81356001600160a01b038116811461056957600080fd5b9392505050565b6000815180845260005b818110156105965760208185018101518683018201520161057a565b506000602082860101526020601f19601f83011685010191505092915050565b8381526060602082015260006105cf6060830185610570565b9050826040830152949350505050565b634e487b7160e01b600052604160045260246000fd5b60006020828403121561060757600080fd5b813567ffffffffffffffff8082111561061f57600080fd5b818401915084601f83011261063357600080fd5b813581811115610645576106456105df565b604051601f8201601f19908116603f0116810190838211818310171561066d5761066d6105df565b8160405282815287602084870101111561068657600080fd5b826020860160208301376000928101602001929092525095945050505050565b6000600182016106c657634e487b7160e01b600052601160045260246000fd5b5060010190565b600181811c908216806106e157607f821691505b60208210810361070157634e487b7160e01b600052602260045260246000fd5b50919050565b6020808252600a908201526927b7363c9030b236b4b760b11b604082015260600190565b601f82111561077557600081815260208120601f850160051c810160208610156107525750805b601f850160051c820191505b818110156107715782815560010161075e565b5050505b505050565b815167ffffffffffffffff811115610794576107946105df565b6107a8816107a284546106cd565b8461072b565b602080601f8311600181146107dd57600084156107c55750858301515b600019600386901b1c1916600185901b178555610771565b600085815260208120601f198616915b8281101561080c578886015182559484019460019091019084016107ed565b508582101561082a5787850151600019600388901b60f8161c191681555b5050505050600190811b01905550565b8281526040602082015260006108536040830184610570565b94935050505056fea26469706673582212203b68025ebf8681c46e963a9ec574c151ee210f0fc70a934c4328eea7e3a4502c64736f6c63430008130033",
  "immutableReferences": {},
  "source": "// SPDX-License-Identifier: MIT\r\npragma solidity ^0.8.0;\r\n\r\ncontract ClassVote {\r\n    address public admin;\r\n    bool public votingOpen;\r\n\r\n    struct Candidate {\r\n        uint id;\r\n        string name;\r\n        uint voteCount;\r\n    }\r\n\r\n    mapping(uint => Candidate) public candidates;\r\n    uint public candidatesCount;\r\n\r\n    mapping(address => bool) public hasVoted;\r\n\r\n    event CandidateAdded(uint id, string name);\r\n    event Voted(address voter, uint candidateId);\r\n    event VotingOpened();\r\n    event VotingClosed();\r\n\r\n    modifier onlyAdmin() {\r\n        require(msg.sender == admin, \"Only admin\");\r\n        _;\r\n    }\r\n\r\n    modifier whenOpen() {\r\n        require(votingOpen == true, \"Voting is not open\");\r\n        _;\r\n    }\r\n\r\n    constructor() {\r\n        admin = msg.sender;\r\n        votingOpen = false;\r\n    }\r\n\r\n    function addCandidate(string memory _name) public onlyAdmin {\r\n        candidatesCount++;\r\n        candidates[candidatesCount] = Candidate(candidatesCount, _name, 0);\r\n        emit CandidateAdded(candidatesCount, _name);\r\n    }\r\n\r\n    function openVoting() public onlyAdmin {\r\n        votingOpen = true;\r\n        emit VotingOpened();\r\n    }\r\n\r\n    function closeVoting() public onlyAdmin {\r\n        votingOpen = false;\r\n        emit VotingClosed();\r\n    }\r\n\r\n    function vote(uint _candidateId) public whenOpen {\r\n        require(!hasVoted[msg.sender], \"You already voted\");\r\n        require(_candidateId > 0 && _candidateId <= candidatesCount, \"Invalid candidate\");\r\n\r\n        hasVoted[msg.sender] = true;\r\n        candidates[_candidateId].voteCount++;\r\n        emit Voted(msg.sender, _candidateId);\r\n    }\r\n}",
  "sourcePath": "D:\\evoting-class\\contracts\\ClassVote.sol",
  "compiler": {
    "name": "solc",
    "version": "0.8.19+commit.7dd6d404.Emscripten.clang"
  },
  "schemaVersion": "3.4.16",
  "updatedAt": "2025-12-05T03:04:17.659Z",
  "networkType": "ethereum",
  "devdoc": {
    "kind": "dev",
    "methods": {},
    "version": 1
  },
  "userdoc": {
    "kind": "user",
    "methods": {},
    "version": 1
  }
}