{
  "contractName": "Evoting",
  "abi": [
    {
      "inputs": [],
      "stateMutability": "nonpayable",
      "type": "constructor"
    },
    {
      "anonymous": false,
      "inputs": [
        {
          "indexed": false,
          "internalType": "uint256",
          "name": "id",
          "type": "uint256"
        },
        {
          "indexed": false,
          "internalType": "string",
          "name": "name",
          "type": "string"
        }
      ],
      "name": "CandidateAdded",
      "type": "event"
    },
    {
      "anonymous": false,
      "inputs": [
        {
          "indexed": true,
          "internalType": "address",
          "name": "voter",
          "type": "address"
        },
        {
          "indexed": true,
          "internalType": "uint256",
          "name": "candidateId",
          "type": "uint256"
        }
      ],
      "name": "VoteCast",
      "type": "event"
    },
    {
      "inputs": [],
      "name": "admin",
      "outputs": [
        {
          "internalType": "address",
          "name": "",
          "type": "address"
        }
      ],
      "stateMutability": "view",
      "type": "function",
      "constant": true
    },
    {
      "inputs": [
        {
          "internalType": "uint256",
          "name": "",
          "type": "uint256"
        }
      ],
      "name": "candidates",
      "outputs": [
        {
          "internalType": "uint256",
          "name": "id",
          "type": "uint256"
        },
        {
          "internalType": "string",
          "name": "name",
          "type": "string"
        },
        {
          "internalType": "uint256",
          "name": "voteCount",
          "type": "uint256"
        }
      ],
      "stateMutability": "view",
      "type": "function",
      "constant": true
    },
    {
      "inputs": [],
      "name": "candidatesCount",
      "outputs": [
        {
          "internalType": "uint256",
          "name": "",
          "type": "uint256"
        }
      ],
      "stateMutability": "view",
      "type": "function",
      "constant": true
    },
    {
      "inputs": [
        {
          "internalType": "address",
          "name": "",
          "type": "address"
        }
      ],
      "name": "hasVoted",
      "outputs": [
        {
          "internalType": "bool",
          "name": "",
          "type": "bool"
        }
      ],
      "stateMutability": "view",
      "type": "function",
      "constant": true
    },
    {
      "inputs": [
        {
          "internalType": "string",
          "name": "_name",
          "type": "string"
        }
      ],
      "name": "addCandidate",
      "outputs": [],
      "stateMutability": "nonpayable",
      "type": "function"
    },
    {
      "inputs": [
        {
          "internalType": "address",
          "name": "_voter",
          "type": "address"
        },
        {
          "internalType": "uint256",
          "name": "_candidateId",
          "type": "uint256"
        }
      ],
      "name": "vote",
      "outputs": [],
      "stateMutability": "nonpayable",
      "type": "function"
    },
    {
      "inputs": [
        {
          "internalType": "uint256",
          "name": "_id",
          "type": "uint256"
        }
      ],
      "name": "getCandidate",
      "outputs": [
        {
          "internalType": "uint256",
          "name": "",
          "type": "uint256"
        },
        {
          "internalType": "string",
          "name": "",
          "type": "string"
        },
        {
          "internalType": "uint256",
          "name": "",
          "type": "uint256"
        }
      ],
      "stateMutability": "view",
      "type": "function",
      "constant": true
    }
  ],
  "bytecode": "0x608060405234801561001057600080fd5b50600380546001600160a01b031916331790556108f0806100326000396000f3fe608060405234801561001057600080fd5b506004361061007d5760003560e01c806335b8e8201161005b57806335b8e820146100f3578063462e91ec146101065780635f74bbde1461011b578063f851a4401461012e57600080fd5b806309eef43e146100825780632d35a8a2146100ba5780633477ee2e146100d1575b600080fd5b6100a561009036600461058e565b60016020526000908152604090205460ff1681565b60405190151581526020015b60405180910390f35b6100c360025481565b6040519081526020016100b1565b6100e46100df3660046105b0565b610159565b6040516100b19392919061060f565b6100e46101013660046105b0565b610204565b61011961011436600461064e565b6102e9565b005b6101196101293660046106ff565b6103e2565b600354610141906001600160a01b031681565b6040516001600160a01b0390911681526020016100b1565b6000602081905290815260409020805460018201805491929161017b90610729565b80601f01602080910402602001604051908101604052809291908181526020018280546101a790610729565b80156101f45780601f106101c9576101008083540402835291602001916101f4565b820191906000526020600020905b8154815290600101906020018083116101d757829003601f168201915b5050505050908060020154905083565b600060606000806000808681526020019081526020016000206040518060600160405290816000820154815260200160018201805461024290610729565b80601f016020809104026020016040519081016040528092919081815260200182805461026e90610729565b80156102bb5780601f10610290576101008083540402835291602001916102bb565b820191906000526020600020905b81548152906001019060200180831161029e57829003601f168201915b5050509183525050600291909101546020918201528151908201516040909201519097919650945092505050565b6003546001600160a01b031633146103435760405162461bcd60e51b81526020600482015260186024820152774f6e6c792061646d696e2063616e2063616c6c207468697360401b60448201526064015b60405180910390fd5b6002805490600061035383610763565b9091555050604080516060810182526002548082526020808301858152600084860181905292835290829052929020815181559151909190600182019061039a90826107d9565b506040918201516002918201555490517fe83b2a43e7e82d975c8a0a6d2f045153c869e111136a34d1889ab7b598e396a3916103d7918490610899565b60405180910390a150565b6003546001600160a01b031633146104375760405162461bcd60e51b81526020600482015260186024820152774f6e6c792061646d696e2063616e2063616c6c207468697360401b604482015260640161033a565b6001600160a01b03821660009081526001602052604090205460ff16156104a05760405162461bcd60e51b815260206004820152601760248201527f566f7465722068617320616c726561647920766f746564000000000000000000604482015260640161033a565b6000811180156104b257506002548111155b6104f55760405162461bcd60e51b8152602060048201526014602482015273125b9d985b1a590818d85b991a59185d1948125160621b604482015260640161033a565b6001600160a01b0382166000908152600160208181526040808420805460ff1916909317909255838352829052812060020180549161053383610763565b909155505060405181906001600160a01b038416907fa36cc2bebb74db33e9f88110a07ef56e1b31b24b4c4f51b54b1664266e29f45b90600090a35050565b80356001600160a01b038116811461058957600080fd5b919050565b6000602082840312156105a057600080fd5b6105a982610572565b9392505050565b6000602082840312156105c257600080fd5b5035919050565b6000815180845260005b818110156105ef576020818501810151868301820152016105d3565b506000602082860101526020601f19601f83011685010191505092915050565b83815260606020820152600061062860608301856105c9565b9050826040830152949350505050565b634e487b7160e01b600052604160045260246000fd5b60006020828403121561066057600080fd5b813567ffffffffffffffff8082111561067857600080fd5b818401915084601f83011261068c57600080fd5b81358181111561069e5761069e610638565b604051601f8201601f19908116603f011681019083821181831017156106c6576106c6610638565b816040528281528760208487010111156106df57600080fd5b826020860160208301376000928101602001929092525095945050505050565b6000806040838503121561071257600080fd5b61071b83610572565b946020939093013593505050565b600181811c9082168061073d57607f821691505b60208210810361075d57634e487b7160e01b600052602260045260246000fd5b50919050565b60006001820161078357634e487b7160e01b600052601160045260246000fd5b5060010190565b601f8211156107d457600081815260208120601f850160051c810160208610156107b15750805b601f850160051c820191505b818110156107d0578281556001016107bd565b5050505b505050565b815167ffffffffffffffff8111156107f3576107f3610638565b610807816108018454610729565b8461078a565b602080601f83116001811461083c57600084156108245750858301515b600019600386901b1c1916600185901b1785556107d0565b600085815260208120601f198616915b8281101561086b5788860151825594840194600190910190840161084c565b50858210156108895787850151600019600388901b60f8161c191681555b5050505050600190811b01905550565b8281526040602082015260006108b260408301846105c9565b94935050505056fea2646970667358221220f7da07a50548f01798742e67c0204c5a4f24828ba9ebee16d3314301993c846d64736f6c63430008130033",
  "immutableReferences": {},
  "source": "// SPDX-License-Identifier: MIT\r\npragma solidity ^0.8.0;\r\n\r\ncontract Evoting {\r\n    struct Candidate {\r\n        uint id;\r\n        string name;\r\n        uint voteCount;\r\n    }\r\n\r\n    mapping(uint => Candidate) public candidates;\r\n    mapping(address => bool) public hasVoted;\r\n    uint public candidatesCount;\r\n    address public admin;\r\n\r\n    event VoteCast(address indexed voter, uint indexed candidateId);\r\n    event CandidateAdded(uint id, string name);\r\n\r\n    modifier onlyAdmin() {\r\n        require(msg.sender == admin, \"Only admin can call this\");\r\n        _;\r\n    }\r\n\r\n    constructor() {\r\n        admin = msg.sender;\r\n    }\r\n\r\n    function addCandidate(string memory _name) public onlyAdmin {\r\n        candidatesCount++;\r\n        candidates[candidatesCount] = Candidate(candidatesCount, _name, 0);\r\n        emit CandidateAdded(candidatesCount, _name);\r\n    }\r\n\r\n    // Custodial Vote: Admin submits on behalf of _voter\r\n    function vote(address _voter, uint _candidateId) public onlyAdmin {\r\n        require(!hasVoted[_voter], \"Voter has already voted\");\r\n        require(\r\n            _candidateId > 0 && _candidateId <= candidatesCount,\r\n            \"Invalid candidate ID\"\r\n        );\r\n\r\n        hasVoted[_voter] = true;\r\n        candidates[_candidateId].voteCount++;\r\n\r\n        emit VoteCast(_voter, _candidateId);\r\n    }\r\n\r\n    function getCandidate(\r\n        uint _id\r\n    ) public view returns (uint, string memory, uint) {\r\n        Candidate memory c = candidates[_id];\r\n        return (c.id, c.name, c.voteCount);\r\n    }\r\n}\r\n",
  "sourcePath": "D:\\Project\\Blockchain\\E-voting-class\\contracts\\Evoting.sol",
  "compiler": {
    "name": "solc",
    "version": "0.8.19+commit.7dd6d404.Emscripten.clang"
  },
  "schemaVersion": "3.4.16",
  "updatedAt": "2025-12-16T10:10:32.025Z",
  "networkType": "ethereum",
  "devdoc": {
    "kind": "dev",
    "methods": {},
    "version": 1
  },
  "userdoc": {
    "kind": "user",
    "methods": {},
    "version": 1
  }
}